{
  "_format": "hh-sol-artifact-1",
  "contractName": "GreenGrid",
  "sourceName": "contracts/GreenGrid.sol",
  "abi": [
    {
      "anonymous": false,
      "inputs": [
        {
          "indexed": false,
          "internalType": "uint256",
          "name": "offerId",
          "type": "uint256"
        },
        {
          "indexed": false,
          "internalType": "address",
          "name": "seller",
          "type": "address"
        },
        {
          "indexed": false,
          "internalType": "uint256",
          "name": "amount",
          "type": "uint256"
        },
        {
          "indexed": false,
          "internalType": "uint256",
          "name": "price",
          "type": "uint256"
        }
      ],
      "name": "EnergyOffered",
      "type": "event"
    },
    {
      "anonymous": false,
      "inputs": [
        {
          "indexed": false,
          "internalType": "uint256",
          "name": "offerId",
          "type": "uint256"
        },
        {
          "indexed": false,
          "internalType": "address",
          "name": "buyer",
          "type": "address"
        },
        {
          "indexed": false,
          "internalType": "uint256",
          "name": "amount",
          "type": "uint256"
        },
        {
          "indexed": false,
          "internalType": "uint256",
          "name": "totalPrice",
          "type": "uint256"
        }
      ],
      "name": "EnergyPurchased",
      "type": "event"
    },
    {
      "inputs": [
        {
          "internalType": "address",
          "name": "",
          "type": "address"
        }
      ],
      "name": "balances",
      "outputs": [
        {
          "internalType": "uint256",
          "name": "",
          "type": "uint256"
        }
      ],
      "stateMutability": "view",
      "type": "function"
    },
    {
      "inputs": [
        {
          "internalType": "uint256",
          "name": "",
          "type": "uint256"
        }
      ],
      "name": "energyOffers",
      "outputs": [
        {
          "internalType": "address",
          "name": "seller",
          "type": "address"
        },
        {
          "internalType": "uint256",
          "name": "amount",
          "type": "uint256"
        },
        {
          "internalType": "uint256",
          "name": "price",
          "type": "uint256"
        },
        {
          "internalType": "bool",
          "name": "active",
          "type": "bool"
        }
      ],
      "stateMutability": "view",
      "type": "function"
    },
    {
      "inputs": [
        {
          "internalType": "uint256",
          "name": "_amount",
          "type": "uint256"
        },
        {
          "internalType": "uint256",
          "name": "_price",
          "type": "uint256"
        }
      ],
      "name": "offerEnergy",
      "outputs": [],
      "stateMutability": "nonpayable",
      "type": "function"
    },
    {
      "inputs": [
        {
          "internalType": "uint256",
          "name": "_offerId",
          "type": "uint256"
        },
        {
          "internalType": "uint256",
          "name": "_amount",
          "type": "uint256"
        }
      ],
      "name": "purchaseEnergy",
      "outputs": [],
      "stateMutability": "payable",
      "type": "function"
    },
    {
      "inputs": [],
      "name": "withdrawBalance",
      "outputs": [],
      "stateMutability": "nonpayable",
      "type": "function"
    }
  ],
  "bytecode": "0x608060405234801561001057600080fd5b50610b69806100206000396000f3fe60806040526004361061004a5760003560e01c806303b5baae1461004f5780631affc61c1461006b57806327e235e3146100945780633fa2f801146100d15780635fd8c71014610111575b600080fd5b6100696004803603810190610064919061070b565b610128565b005b34801561007757600080fd5b50610092600480360381019061008d919061070b565b6103c0565b005b3480156100a057600080fd5b506100bb60048036038101906100b691906106b9565b6104f4565b6040516100c89190610939565b60405180910390f35b3480156100dd57600080fd5b506100f860048036038101906100f391906106e2565b61050c565b6040516101089493929190610874565b60405180910390f35b34801561011d57600080fd5b50610126610579565b005b6000808381548110610163577f4e487b7100000000000000000000000000000000000000000000000000000000600052603260045260246000fd5b906000526020600020906004020190508060030160009054906101000a900460ff166101c4576040517f08c379a00000000000000000000000000000000000000000000000000000000081526004016101bb906108d9565b60405180910390fd5b806001015482111561020b576040517f08c379a000000000000000000000000000000000000000000000000000000000815260040161020290610919565b60405180910390fd5b600081600201548361021d9190610a00565b905080341015610262576040517f08c379a0000000000000000000000000000000000000000000000000000000008152600401610259906108b9565b60405180910390fd5b828260010160008282546102769190610a5a565b925050819055506000826001015414156102a85760008260030160006101000a81548160ff0219169083151502179055505b80600160008460000160009054906101000a900473ffffffffffffffffffffffffffffffffffffffff1673ffffffffffffffffffffffffffffffffffffffff1673ffffffffffffffffffffffffffffffffffffffff168152602001908152602001600020600082825461031b91906109aa565b925050819055508034111561037d573373ffffffffffffffffffffffffffffffffffffffff166108fc82346103509190610a5a565b9081150290604051600060405180830381858888f1935050505015801561037b573d6000803e3d6000fd5b505b7fb3f7800221c52a82e5cb1dea74fe5947e147bdd6b315a45301e655007d1e6e9f843385846040516103b29493929190610954565b60405180910390a150505050565b600060405180608001604052803373ffffffffffffffffffffffffffffffffffffffff16815260200184815260200183815260200160011515815250908060018154018082558091505060019003906000526020600020906004020160009091909190915060008201518160000160006101000a81548173ffffffffffffffffffffffffffffffffffffffff021916908373ffffffffffffffffffffffffffffffffffffffff160217905550602082015181600101556040820151816002015560608201518160030160006101000a81548160ff02191690831515021790555050507fda3d99b33292474cce9fea011535f71efc401c7bb35e0f270dadfaea925a6ba660016000805490506104d59190610a5a565b3384846040516104e89493929190610954565b60405180910390a15050565b60016020528060005260406000206000915090505481565b6000818154811061051c57600080fd5b90600052602060002090600402016000915090508060000160009054906101000a900473ffffffffffffffffffffffffffffffffffffffff16908060010154908060020154908060030160009054906101000a900460ff16905084565b6000600160003373ffffffffffffffffffffffffffffffffffffffff1673ffffffffffffffffffffffffffffffffffffffff16815260200190815260200160002054905060008111610600576040517f08c379a00000000000000000000000000000000000000000000000000000000081526004016105f7906108f9565b60405180910390fd5b6000600160003373ffffffffffffffffffffffffffffffffffffffff1673ffffffffffffffffffffffffffffffffffffffff168152602001908152602001600020819055503373ffffffffffffffffffffffffffffffffffffffff166108fc829081150290604051600060405180830381858888f1935050505015801561068b573d6000803e3d6000fd5b5050565b60008135905061069e81610b05565b92915050565b6000813590506106b381610b1c565b92915050565b6000602082840312156106cb57600080fd5b60006106d98482850161068f565b91505092915050565b6000602082840312156106f457600080fd5b6000610702848285016106a4565b91505092915050565b6000806040838503121561071e57600080fd5b600061072c858286016106a4565b925050602061073d858286016106a4565b9150509250929050565b61075081610a8e565b82525050565b61075f81610aa0565b82525050565b6000610772600e83610999565b91507f596574657273697a206f64656d650000000000000000000000000000000000006000830152602082019050919050565b60006107b2601883610999565b91507f54656b6c696620617274696b20616b74696620646567696c00000000000000006000830152602082019050919050565b60006107f2601483610999565b91507f43656b696c6563656b2062616b69796520796f6b0000000000000000000000006000830152602082019050919050565b6000610832601783610999565b91507f596574657273697a20656e65726a69206d696b746172690000000000000000006000830152602082019050919050565b61086e81610acc565b82525050565b60006080820190506108896000830187610747565b6108966020830186610865565b6108a36040830185610865565b6108b06060830184610756565b95945050505050565b600060208201905081810360008301526108d281610765565b9050919050565b600060208201905081810360008301526108f2816107a5565b9050919050565b60006020820190508181036000830152610912816107e5565b9050919050565b6000602082019050818103600083015261093281610825565b9050919050565b600060208201905061094e6000830184610865565b92915050565b60006080820190506109696000830187610865565b6109766020830186610747565b6109836040830185610865565b6109906060830184610865565b95945050505050565b600082825260208201905092915050565b60006109b582610acc565b91506109c083610acc565b9250827fffffffffffffffffffffffffffffffffffffffffffffffffffffffffffffffff038211156109f5576109f4610ad6565b5b828201905092915050565b6000610a0b82610acc565b9150610a1683610acc565b9250817fffffffffffffffffffffffffffffffffffffffffffffffffffffffffffffffff0483118215151615610a4f57610a4e610ad6565b5b828202905092915050565b6000610a6582610acc565b9150610a7083610acc565b925082821015610a8357610a82610ad6565b5b828203905092915050565b6000610a9982610aac565b9050919050565b60008115159050919050565b600073ffffffffffffffffffffffffffffffffffffffff82169050919050565b6000819050919050565b7f4e487b7100000000000000000000000000000000000000000000000000000000600052601160045260246000fd5b610b0e81610a8e565b8114610b1957600080fd5b50565b610b2581610acc565b8114610b3057600080fd5b5056fea2646970667358221220e957ade1d425d183356ab212b3f358e76c0499e5e118a24446d20979f5b852c464736f6c63430008000033",
  "linkReferences": {},
  "deployedLinkReferences": {}
}